{
  "contractName": "Medecin",
  "abi": [
    {
      "constant": true,
      "inputs": [],
      "name": "medecinCount",
      "outputs": [
        {
          "internalType": "uint256",
          "name": "",
          "type": "uint256"
        }
      ],
      "payable": false,
      "stateMutability": "view",
      "type": "function"
    },
    {
      "constant": true,
      "inputs": [
        {
          "internalType": "uint256",
          "name": "",
          "type": "uint256"
        }
      ],
      "name": "medecins",
      "outputs": [
        {
          "internalType": "string",
          "name": "cin",
          "type": "string"
        },
        {
          "internalType": "string",
          "name": "nom",
          "type": "string"
        },
        {
          "internalType": "string",
          "name": "prenom",
          "type": "string"
        },
        {
          "internalType": "string",
          "name": "domaine",
          "type": "string"
        }
      ],
      "payable": false,
      "stateMutability": "view",
      "type": "function"
    },
    {
      "constant": false,
      "inputs": [
        {
          "internalType": "string",
          "name": "_cin",
          "type": "string"
        },
        {
          "internalType": "string",
          "name": "_nom",
          "type": "string"
        },
        {
          "internalType": "string",
          "name": "_prenom",
          "type": "string"
        },
        {
          "internalType": "string",
          "name": "_domaine",
          "type": "string"
        }
      ],
      "name": "addMedecin",
      "outputs": [],
      "payable": false,
      "stateMutability": "nonpayable",
      "type": "function"
    },
    {
      "constant": false,
      "inputs": [
        {
          "internalType": "uint256",
          "name": "_indice",
          "type": "uint256"
        },
        {
          "internalType": "string",
          "name": "_cin",
          "type": "string"
        },
        {
          "internalType": "string",
          "name": "_nom",
          "type": "string"
        },
        {
          "internalType": "string",
          "name": "_prenom",
          "type": "string"
        },
        {
          "internalType": "string",
          "name": "_domaine",
          "type": "string"
        }
      ],
      "name": "editMedecin",
      "outputs": [],
      "payable": false,
      "stateMutability": "nonpayable",
      "type": "function"
    }
  ],
  "bytecode": "0x60806040526000805534801561001457600080fd5b50610c49806100246000396000f3fe608060405234801561001057600080fd5b506004361061004c5760003560e01c8063041fe78614610051578063a0d28e8e146102db578063a95d76bf1461055b578063c6a498e714610579575b600080fd5b6102d9600480360360a081101561006757600080fd5b81019080803590602001909291908035906020019064010000000081111561008e57600080fd5b8201836020820111156100a057600080fd5b803590602001918460018302840111640100000000831117156100c257600080fd5b91908080601f016020809104026020016040519081016040528093929190818152602001838380828437600081840152601f19601f8201169050808301925050505050505091929192908035906020019064010000000081111561012557600080fd5b82018360208201111561013757600080fd5b8035906020019184600183028401116401000000008311171561015957600080fd5b91908080601f016020809104026020016040519081016040528093929190818152602001838380828437600081840152601f19601f820116905080830192505050505050509192919290803590602001906401000000008111156101bc57600080fd5b8201836020820111156101ce57600080fd5b803590602001918460018302840111640100000000831117156101f057600080fd5b91908080601f016020809104026020016040519081016040528093929190818152602001838380828437600081840152601f19601f8201169050808301925050505050505091929192908035906020019064010000000081111561025357600080fd5b82018360208201111561026557600080fd5b8035906020019184600183028401116401000000008311171561028757600080fd5b91908080601f016020809104026020016040519081016040528093929190818152602001838380828437600081840152601f19601f820116905080830192505050505050509192919290505050610764565b005b610559600480360360808110156102f157600080fd5b810190808035906020019064010000000081111561030e57600080fd5b82018360208201111561032057600080fd5b8035906020019184600183028401116401000000008311171561034257600080fd5b91908080601f016020809104026020016040519081016040528093929190818152602001838380828437600081840152601f19601f820116905080830192505050505050509192919290803590602001906401000000008111156103a557600080fd5b8201836020820111156103b757600080fd5b803590602001918460018302840111640100000000831117156103d957600080fd5b91908080601f016020809104026020016040519081016040528093929190818152602001838380828437600081840152601f19601f8201169050808301925050505050505091929192908035906020019064010000000081111561043c57600080fd5b82018360208201111561044e57600080fd5b8035906020019184600183028401116401000000008311171561047057600080fd5b91908080601f016020809104026020016040519081016040528093929190818152602001838380828437600081840152601f19601f820116905080830192505050505050509192919290803590602001906401000000008111156104d357600080fd5b8201836020820111156104e557600080fd5b8035906020019184600183028401116401000000008311171561050757600080fd5b91908080601f016020809104026020016040519081016040528093929190818152602001838380828437600081840152601f19601f820116905080830192505050505050509192919290505050610816565b005b6105636108d9565b6040518082815260200191505060405180910390f35b6105a56004803603602081101561058f57600080fd5b81019080803590602001909291905050506108df565b6040518080602001806020018060200180602001858103855289818151815260200191508051906020019080838360005b838110156105f15780820151818401526020810190506105d6565b50505050905090810190601f16801561061e5780820380516001836020036101000a031916815260200191505b50858103845288818151815260200191508051906020019080838360005b8381101561065757808201518184015260208101905061063c565b50505050905090810190601f1680156106845780820380516001836020036101000a031916815260200191505b50858103835287818151815260200191508051906020019080838360005b838110156106bd5780820151818401526020810190506106a2565b50505050905090810190601f1680156106ea5780820380516001836020036101000a031916815260200191505b50858103825286818151815260200191508051906020019080838360005b83811015610723578082015181840152602081019050610708565b50505050905090810190601f1680156107505780820380516001836020036101000a031916815260200191505b509850505050505050505060405180910390f35b6040518060800160405280858152602001848152602001838152602001828152506001600087815260200190815260200160002060008201518160000190805190602001906107b4929190610b6f565b5060208201518160010190805190602001906107d1929190610b6f565b5060408201518160020190805190602001906107ee929190610b6f565b50606082015181600301908051906020019061080b929190610b6f565b509050505050505050565b60405180608001604052808581526020018481526020018381526020018281525060016000805481526020019081526020016000206000820151816000019080519060200190610867929190610b6f565b506020820151816001019080519060200190610884929190610b6f565b5060408201518160020190805190602001906108a1929190610b6f565b5060608201518160030190805190602001906108be929190610b6f565b50905050600080815480929190600101919050555050505050565b60005481565b6001602052806000526040600020600091509050806000018054600181600116156101000203166002900480601f01602080910402602001604051908101604052809291908181526020018280546001816001161561010002031660029004801561098b5780601f106109605761010080835404028352916020019161098b565b820191906000526020600020905b81548152906001019060200180831161096e57829003601f168201915b505050505090806001018054600181600116156101000203166002900480601f016020809104026020016040519081016040528092919081815260200182805460018160011615610100020316600290048015610a295780601f106109fe57610100808354040283529160200191610a29565b820191906000526020600020905b815481529060010190602001808311610a0c57829003601f168201915b505050505090806002018054600181600116156101000203166002900480601f016020809104026020016040519081016040528092919081815260200182805460018160011615610100020316600290048015610ac75780601f10610a9c57610100808354040283529160200191610ac7565b820191906000526020600020905b815481529060010190602001808311610aaa57829003601f168201915b505050505090806003018054600181600116156101000203166002900480601f016020809104026020016040519081016040528092919081815260200182805460018160011615610100020316600290048015610b655780601f10610b3a57610100808354040283529160200191610b65565b820191906000526020600020905b815481529060010190602001808311610b4857829003601f168201915b5050505050905084565b828054600181600116156101000203166002900490600052602060002090601f016020900481019282601f10610bb057805160ff1916838001178555610bde565b82800160010185558215610bde579182015b82811115610bdd578251825591602001919060010190610bc2565b5b509050610beb9190610bef565b5090565b610c1191905b80821115610c0d576000816000905550600101610bf5565b5090565b9056fea265627a7a72315820fa1bcdf42e25e9c850d5b69312bb721b6165a59b8e7f670b5d41ab98a3ed48fd64736f6c63430005100032",
  "source": "pragma solidity ^0.5.0;\n \ncontract Medecin {\n\nuint public medecinCount = 0;\n//MedecinStructure[] public medecinTab;\n\n  struct MedecinStructure {\n    string cin;\n    string nom;\n    string prenom;\n    string domaine;\n  }\n\n  mapping(uint => MedecinStructure) public medecins;\n\n  function addMedecin(string memory _cin, string memory _nom, string memory _prenom, string memory _domaine) public {\n    medecins[medecinCount] = MedecinStructure(_cin, _nom, _prenom, _domaine);\n    //medecinTab.push(MedecinStructure(_adresse, _cin, _nom, _prenom, _domaine));\n    medecinCount ++;\n  }\n  function editMedecin(uint _indice, string memory _cin,string memory _nom, string memory _prenom, string memory _domaine) public {\n    medecins[_indice] = MedecinStructure(_cin, _nom,_prenom, _domaine);\n  }\n}\n",
  "sourcePath": "D:/Education/config/HelloWorldStructure - Copie - Copie/contracts/Medecin.sol",
  "compiler": {
    "name": "solc",
    "version": "0.5.16+commit.9c3226ce.Emscripten.clang"
  },
  "schemaVersion": "3.3.4",
  "updatedAt": "2021-04-22T13:18:40.812Z",
  "networkType": "ethereum",
  "devdoc": {
    "methods": {}
  },
  "userdoc": {
    "methods": {}
  }
}