{
  "contractName": "Utilisateur",
  "abi": [
    {
      "constant": true,
      "inputs": [],
      "name": "utilisateurCount",
      "outputs": [
        {
          "internalType": "uint256",
          "name": "",
          "type": "uint256"
        }
      ],
      "payable": false,
      "stateMutability": "view",
      "type": "function"
    },
    {
      "constant": true,
      "inputs": [
        {
          "internalType": "string",
          "name": "",
          "type": "string"
        }
      ],
      "name": "utilisateurs",
      "outputs": [
        {
          "internalType": "string",
          "name": "cin",
          "type": "string"
        },
        {
          "internalType": "string",
          "name": "motPasse",
          "type": "string"
        },
        {
          "internalType": "string",
          "name": "role",
          "type": "string"
        }
      ],
      "payable": false,
      "stateMutability": "view",
      "type": "function"
    },
    {
      "constant": false,
      "inputs": [
        {
          "internalType": "string",
          "name": "_cin",
          "type": "string"
        },
        {
          "internalType": "string",
          "name": "_motPasse",
          "type": "string"
        },
        {
          "internalType": "string",
          "name": "_role",
          "type": "string"
        }
      ],
      "name": "addUtilisateur",
      "outputs": [],
      "payable": false,
      "stateMutability": "nonpayable",
      "type": "function"
    }
  ],
  "bytecode": "0x6080604052600060015534801561001557600080fd5b50610836806100256000396000f3fe608060405234801561001057600080fd5b50600436106100415760003560e01c806302e7bafc1461004657806372afb0ac1461022f578063c978c3071461043b575b600080fd5b61022d6004803603606081101561005c57600080fd5b810190808035906020019064010000000081111561007957600080fd5b82018360208201111561008b57600080fd5b803590602001918460018302840111640100000000831117156100ad57600080fd5b91908080601f016020809104026020016040519081016040528093929190818152602001838380828437600081840152601f19601f8201169050808301925050505050505091929192908035906020019064010000000081111561011057600080fd5b82018360208201111561012257600080fd5b8035906020019184600183028401116401000000008311171561014457600080fd5b91908080601f016020809104026020016040519081016040528093929190818152602001838380828437600081840152601f19601f820116905080830192505050505050509192919290803590602001906401000000008111156101a757600080fd5b8201836020820111156101b957600080fd5b803590602001918460018302840111640100000000831117156101db57600080fd5b91908080601f016020809104026020016040519081016040528093929190818152602001838380828437600081840152601f19601f820116905080830192505050505050509192919290505050610459565b005b6102e86004803603602081101561024557600080fd5b810190808035906020019064010000000081111561026257600080fd5b82018360208201111561027457600080fd5b8035906020019184600183028401116401000000008311171561029657600080fd5b91908080601f016020809104026020016040519081016040528093929190818152602001838380828437600081840152601f19601f82011690508083019250505050505050919291929050505061054e565b60405180806020018060200180602001848103845287818151815260200191508051906020019080838360005b83811015610330578082015181840152602081019050610315565b50505050905090810190601f16801561035d5780820380516001836020036101000a031916815260200191505b50848103835286818151815260200191508051906020019080838360005b8381101561039657808201518184015260208101905061037b565b50505050905090810190601f1680156103c35780820380516001836020036101000a031916815260200191505b50848103825285818151815260200191508051906020019080838360005b838110156103fc5780820151818401526020810190506103e1565b50505050905090810190601f1680156104295780820380516001836020036101000a031916815260200191505b50965050505050505060405180910390f35b610443610756565b6040518082815260200191505060405180910390f35b6040518060600160405280848152602001838152602001828152506000846040518082805190602001908083835b602083106104aa5780518252602082019150602081019050602083039250610487565b6001836020036101000a038019825116818451168082178552505050505050905001915050908152602001604051809103902060008201518160000190805190602001906104f992919061075c565b50602082015181600101908051906020019061051692919061075c565b50604082015181600201908051906020019061053392919061075c565b50905050600160008154809291906001019190505550505050565b600081805160208101820180518482526020830160208501208183528095505050505050600091509050806000018054600181600116156101000203166002900480601f0160208091040260200160405190810160405280929190818152602001828054600181600116156101000203166002900480156106105780601f106105e557610100808354040283529160200191610610565b820191906000526020600020905b8154815290600101906020018083116105f357829003601f168201915b505050505090806001018054600181600116156101000203166002900480601f0160208091040260200160405190810160405280929190818152602001828054600181600116156101000203166002900480156106ae5780601f10610683576101008083540402835291602001916106ae565b820191906000526020600020905b81548152906001019060200180831161069157829003601f168201915b505050505090806002018054600181600116156101000203166002900480601f01602080910402602001604051908101604052809291908181526020018280546001816001161561010002031660029004801561074c5780601f106107215761010080835404028352916020019161074c565b820191906000526020600020905b81548152906001019060200180831161072f57829003601f168201915b5050505050905083565b60015481565b828054600181600116156101000203166002900490600052602060002090601f016020900481019282601f1061079d57805160ff19168380011785556107cb565b828001600101855582156107cb579182015b828111156107ca5782518255916020019190600101906107af565b5b5090506107d891906107dc565b5090565b6107fe91905b808211156107fa5760008160009055506001016107e2565b5090565b9056fea265627a7a72315820a1f50111b603ae244c90d94d12ea1753484a0772b0fc6b6e43af702bfced84b864736f6c63430005100032",
  "source": "pragma solidity ^0.5.0;\r\n\r\ncontract Utilisateur \r\n{\r\n    //mapping(address=>string) public utilisateurs;\r\n    mapping(string=>UtilisateurStructure) public utilisateurs;\r\n    uint public utilisateurCount=0;\r\n    //UtilisateurStructure[] public utilisateurTab;\r\n\r\n    struct UtilisateurStructure {\r\n        string cin;\r\n        string motPasse;\r\n        string role;\r\n    }\r\n    function addUtilisateur(string memory _cin,string memory _motPasse,string memory _role) public {\r\n        //utilisateurs[_address] = _motpasse;\r\n        utilisateurs[_cin] = UtilisateurStructure(_cin, _motPasse, _role);\r\n        //utilisateurTab.push(UtilisateurStructure(_address, _motpasse, _role));\r\n        utilisateurCount++;\r\n    }\r\n}",
  "sourcePath": "D:/Education/config/HelloWorldStructure - Copie - Copie/contracts/Utilisateur.sol",
  "compiler": {
    "name": "solc",
    "version": "0.5.16+commit.9c3226ce.Emscripten.clang"
  },
  "schemaVersion": "3.3.4",
  "updatedAt": "2021-04-22T13:18:40.829Z",
  "networkType": "ethereum",
  "devdoc": {
    "methods": {}
  },
  "userdoc": {
    "methods": {}
  }
}